{
  "contractName": "Faucet",
  "abi": [
    {
      "inputs": [],
      "name": "numOfFunders",
      "outputs": [
        {
          "internalType": "uint256",
          "name": "",
          "type": "uint256"
        }
      ],
      "stateMutability": "view",
      "type": "function"
    },
    {
      "inputs": [],
      "name": "owner",
      "outputs": [
        {
          "internalType": "address",
          "name": "",
          "type": "address"
        }
      ],
      "stateMutability": "view",
      "type": "function"
    },
    {
      "inputs": [],
      "name": "test5",
      "outputs": [
        {
          "internalType": "uint256",
          "name": "",
          "type": "uint256"
        }
      ],
      "stateMutability": "pure",
      "type": "function"
    },
    {
      "inputs": [],
      "name": "testNum",
      "outputs": [
        {
          "internalType": "uint256",
          "name": "",
          "type": "uint256"
        }
      ],
      "stateMutability": "view",
      "type": "function"
    },
    {
      "stateMutability": "payable",
      "type": "receive"
    },
    {
      "inputs": [],
      "name": "emitLog",
      "outputs": [
        {
          "internalType": "bytes32",
          "name": "",
          "type": "bytes32"
        }
      ],
      "stateMutability": "pure",
      "type": "function"
    },
    {
      "inputs": [
        {
          "internalType": "address",
          "name": "newOwner",
          "type": "address"
        }
      ],
      "name": "transferOwnership",
      "outputs": [],
      "stateMutability": "nonpayable",
      "type": "function"
    },
    {
      "inputs": [],
      "name": "addFunds",
      "outputs": [],
      "stateMutability": "payable",
      "type": "function"
    },
    {
      "inputs": [],
      "name": "test1",
      "outputs": [],
      "stateMutability": "nonpayable",
      "type": "function"
    },
    {
      "inputs": [],
      "name": "test2",
      "outputs": [],
      "stateMutability": "nonpayable",
      "type": "function"
    },
    {
      "inputs": [
        {
          "internalType": "uint256",
          "name": "withdrawAmount",
          "type": "uint256"
        }
      ],
      "name": "withdraw",
      "outputs": [],
      "stateMutability": "nonpayable",
      "type": "function"
    },
    {
      "inputs": [],
      "name": "getAllFunders",
      "outputs": [
        {
          "internalType": "address[]",
          "name": "",
          "type": "address[]"
        }
      ],
      "stateMutability": "view",
      "type": "function"
    },
    {
      "inputs": [
        {
          "internalType": "uint8",
          "name": "index",
          "type": "uint8"
        }
      ],
      "name": "getFunderAtIndex",
      "outputs": [
        {
          "internalType": "address",
          "name": "",
          "type": "address"
        }
      ],
      "stateMutability": "view",
      "type": "function"
    }
  ],
  "bytecode": "0x608060405234801561001057600080fd5b50336000806101000a81548173ffffffffffffffffffffffffffffffffffffffff021916908373ffffffffffffffffffffffffffffffffffffffff1602179055506103e8600181905550610cdb806100696000396000f3fe6080604052600436106100ab5760003560e01c80638da5cb5b116100645780638da5cb5b146101a1578063a26759cb146101cc578063ae28f1ed146101d6578063af7f2c9b14610201578063f2fde38b1461022c578063f42c13bf14610255576100b2565b80630a93cf33146100b75780631ad7be82146100f45780632e1a7d4d1461011f57806366e41cb7146101485780636b59084d1461015f5780636fbbb55d14610176576100b2565b366100b257005b600080fd5b3480156100c357600080fd5b506100de60048036038101906100d991906108d9565b610280565b6040516100eb91906109fa565b60405180910390f35b34801561010057600080fd5b506101096102c0565b6040516101169190610a92565b60405180910390f35b34801561012b57600080fd5b50610146600480360381019061014191906108b0565b6102d2565b005b34801561015457600080fd5b5061015d610369565b005b34801561016b57600080fd5b506101746103f9565b005b34801561018257600080fd5b5061018b610489565b6040516101989190610a15565b60405180910390f35b3480156101ad57600080fd5b506101b66105cf565b6040516101c391906109fa565b60405180910390f35b6101d46105f3565b005b3480156101e257600080fd5b506101eb61073a565b6040516101f89190610a92565b60405180910390f35b34801561020d57600080fd5b50610216610740565b6040516102239190610a92565b60405180910390f35b34801561023857600080fd5b50610253600480360381019061024e9190610887565b610746565b005b34801561026157600080fd5b5061026a610817565b6040516102779190610a37565b60405180910390f35b6000600460008360ff16815260200190815260200160002060009054906101000a900473ffffffffffffffffffffffffffffffffffffffff169050919050565b60006102ca61083f565b50600a905090565b8067016345785d8a000081111561031e576040517f08c379a000000000000000000000000000000000000000000000000000000000815260040161031590610a72565b60405180910390fd5b3373ffffffffffffffffffffffffffffffffffffffff166108fc839081150290604051600060405180830381858888f19350505050158015610364573d6000803e3d6000fd5b505050565b60008054906101000a900473ffffffffffffffffffffffffffffffffffffffff1673ffffffffffffffffffffffffffffffffffffffff163373ffffffffffffffffffffffffffffffffffffffff16146103f7576040517f08c379a00000000000000000000000000000000000000000000000000000000081526004016103ee90610a52565b60405180910390fd5b565b60008054906101000a900473ffffffffffffffffffffffffffffffffffffffff1673ffffffffffffffffffffffffffffffffffffffff163373ffffffffffffffffffffffffffffffffffffffff1614610487576040517f08c379a000000000000000000000000000000000000000000000000000000000815260040161047e90610a52565b60405180910390fd5b565b6060600060025467ffffffffffffffff8111156104cf577f4e487b7100000000000000000000000000000000000000000000000000000000600052604160045260246000fd5b6040519080825280602002602001820160405280156104fd5781602001602082028036833780820191505090505b50905060005b6002548110156105c7576004600082815260200190815260200160002060009054906101000a900473ffffffffffffffffffffffffffffffffffffffff1682828151811061057a577f4e487b7100000000000000000000000000000000000000000000000000000000600052603260045260246000fd5b602002602001019073ffffffffffffffffffffffffffffffffffffffff16908173ffffffffffffffffffffffffffffffffffffffff168152505080806105bf90610b4a565b915050610503565b508091505090565b60008054906101000a900473ffffffffffffffffffffffffffffffffffffffff1681565b60006002600081548092919061060890610b4a565b919050559050600033905061061b61083f565b50600360008273ffffffffffffffffffffffffffffffffffffffff1673ffffffffffffffffffffffffffffffffffffffff16815260200190815260200160002060009054906101000a900460ff166107365760006002600081548092919061068290610b4a565b9190505590506001600360008473ffffffffffffffffffffffffffffffffffffffff1673ffffffffffffffffffffffffffffffffffffffff16815260200190815260200160002060006101000a81548160ff0219169083151502179055508160046000600254815260200190815260200160002060006101000a81548173ffffffffffffffffffffffffffffffffffffffff021916908373ffffffffffffffffffffffffffffffffffffffff160217905550505b5050565b60015481565b60025481565b60008054906101000a900473ffffffffffffffffffffffffffffffffffffffff1673ffffffffffffffffffffffffffffffffffffffff163373ffffffffffffffffffffffffffffffffffffffff16146107d4576040517f08c379a00000000000000000000000000000000000000000000000000000000081526004016107cb90610a52565b60405180910390fd5b806000806101000a81548173ffffffffffffffffffffffffffffffffffffffff021916908373ffffffffffffffffffffffffffffffffffffffff16021790555050565b60007f48656c6c6f7720576f726c640000000000000000000000000000000000000000905090565b60006064905090565b60008135905061085781610c60565b92915050565b60008135905061086c81610c77565b92915050565b60008135905061088181610c8e565b92915050565b60006020828403121561089957600080fd5b60006108a784828501610848565b91505092915050565b6000602082840312156108c257600080fd5b60006108d08482850161085d565b91505092915050565b6000602082840312156108eb57600080fd5b60006108f984828501610872565b91505092915050565b600061090e838361091a565b60208301905092915050565b61092381610af7565b82525050565b61093281610af7565b82525050565b600061094382610abd565b61094d8185610ad5565b935061095883610aad565b8060005b838110156109895781516109708882610902565b975061097b83610ac8565b92505060018101905061095c565b5085935050505092915050565b61099f81610b09565b82525050565b60006109b2602183610ae6565b91506109bd82610bc2565b604082019050919050565b60006109d5602383610ae6565b91506109e082610c11565b604082019050919050565b6109f481610b33565b82525050565b6000602082019050610a0f6000830184610929565b92915050565b60006020820190508181036000830152610a2f8184610938565b905092915050565b6000602082019050610a4c6000830184610996565b92915050565b60006020820190508181036000830152610a6b816109a5565b9050919050565b60006020820190508181036000830152610a8b816109c8565b9050919050565b6000602082019050610aa760008301846109eb565b92915050565b6000819050602082019050919050565b600081519050919050565b6000602082019050919050565b600082825260208201905092915050565b600082825260208201905092915050565b6000610b0282610b13565b9050919050565b6000819050919050565b600073ffffffffffffffffffffffffffffffffffffffff82169050919050565b6000819050919050565b600060ff82169050919050565b6000610b5582610b33565b91507fffffffffffffffffffffffffffffffffffffffffffffffffffffffffffffffff821415610b8857610b87610b93565b5b600182019050919050565b7f4e487b7100000000000000000000000000000000000000000000000000000000600052601160045260246000fd5b7f4f6e6c79206f776e65722063616e2063616c6c20746869732066756e6374696f60008201527f6e00000000000000000000000000000000000000000000000000000000000000602082015250565b7f63616e6e6f74207769746864726177206d6f7265207468616e20302e3120657460008201527f6865720000000000000000000000000000000000000000000000000000000000602082015250565b610c6981610af7565b8114610c7457600080fd5b50565b610c8081610b33565b8114610c8b57600080fd5b50565b610c9781610b3d565b8114610ca257600080fd5b5056fea2646970667358221220180840c2c41a602f692fe9fa7c42fc48c7108c799e9c4efc10504c54ece2b3dd64736f6c63430008040033",
  "immutableReferences": {},
  "source": "// SPDX-License-Identifier: MIT\r\npragma solidity >=0.4.22 <0.9.0;\r\n\r\nimport \"./Owned.sol\";\r\nimport \"./Logger.sol\";\r\nimport \"./IFaucet.sol\";\r\ncontract Faucet is Owned, Logger, IFaucet {\r\n   uint public numOfFunders;\r\n   \r\n   mapping(address => bool) private funders; \r\n   mapping(uint => address) private lutFunders;\r\n\r\n\r\n   modifier limitWithdraw(uint withdrawAmount) {\r\n   require(\r\n      withdrawAmount <= 100000000000000000,\r\n       \"cannot withdraw more than 0.1 ether\");\r\n      _;\r\n}\r\n\r\n   receive() external payable {}\r\nfunction emitLog() public override pure returns(bytes32) {\r\n   return \"Hellow World\";\r\n}\r\n\r\nfunction transferOwnership(address newOwner) external onlyOwner {\r\n   owner = newOwner;\r\n}\r\n\r\n\r\n  function addFunds() override external payable  {\r\n   uint index = numOfFunders++;\r\n   address funder = msg.sender;\r\n   test3();\r\n\r\n  if(!funders[funder]){\r\n\r\n   uint index = numOfFunders++;\r\n   funders[funder] = true;\r\n   lutFunders[numOfFunders] = funder;\r\n   }\r\n}\r\n\r\nfunction test1() external onlyOwner {\r\n   // some managing stuff that only admin should have access to \r\n}\r\nfunction test2() external onlyOwner {\r\n   // some managing stuff that only admin should have access to \r\n}\r\n\r\n\r\n\r\n\r\nfunction withdraw(uint withdrawAmount) override external limitWithdraw(withdrawAmount) {\r\n    payable(msg.sender).transfer(withdrawAmount);\r\n   \r\n}\r\nfunction getAllFunders() external view returns (address[] memory)  {\r\n   address[] memory _funders = new address[](numOfFunders);\r\n\r\n   for (uint i = 0; i < numOfFunders; i++) {\r\n      _funders[i] = lutFunders[i];\r\n\r\n  }\r\n  return _funders;\r\n}\r\n\r\nfunction getFunderAtIndex(uint8 index) external view returns(address) {\r\n   return lutFunders[index];\r\n}\r\n\r\n}\r\n\r\n// const result = await instance.justTesting()\r\n// const instance = await Faucet.deployed()\r\n// instance.addFunds({from: accounts[0], value: \"2000000000000000000\"})\r\n// instance.withdraw(\"500000000000000000\", {from: accounts[1]})\r\n// instance.getFunderAtIndex(0)\r\n",
  "sourcePath": "C:\\Users\\USER\\Desktop\\My World\\Blockchain Projects\\faucet\\contracts\\FaucetContract.sol",
  "compiler": {
    "name": "solc",
    "version": "0.8.4+commit.c7e474f2.Emscripten.clang"
  },
  "schemaVersion": "3.4.11",
  "updatedAt": "2023-02-27T09:00:03.444Z",
  "devdoc": {
    "kind": "dev",
    "methods": {},
    "version": 1
  },
  "userdoc": {
    "kind": "user",
    "methods": {},
    "version": 1
  }
}